:020000040800F2
:1000000000280020C5150008551500085B150008DC
:1000100061150008671500086D1500080000000054
:100020000000000000000000000000007315000840
:100030007F150008000000008B15000897150008C8
:100040000D1600080D1600080D1600080D16000804
:100050000D1600080D1600080D1600080D160008F4
:100060000D1600080D1600080D1600080D160008E4
:100070000D1600080D1600080D1600080D160008D4
:100080000D1600080D1600080D1600080D160008C4
:100090000D1600080D1600080D1600080D160008B4
:1000A0000D1600080D1600080D1600080D160008A4
:1000B000A51500080D160008000000000D16000828
:1000C0000D16000800000000000000000D160008DA
:1000D000000000000D1600080D16000800000000CA
:1000E0000D1600080D1600080D160008000000008F
:1000F0000000000000000000000000000000000000
:0C01000000000000000000005FF808F1A3
:10010C0010B5054C237833B9044B13B10448AFF345
:10011C0000800123237010BD20000020000000008F
:10012C00542C000808B5034B1BB103490348AFF32B
:10013C00008008BD0000000024000020542C0008A2
:10014C0080B500AF2B4B1B78022B31D0022B4EDC31
:10015C00002B02D0012B0CD049E0002000F07EFBDC
:10016C000346002B3ED0234B01221A7000F040F9BD
:10017C0038E0002000F072FB0346002B03D11D4B2E
:10018C0000221A7030E0002000F082FB0346002BA6
:10019C002AD0184B02221A70174B1B684FF4FA72B4
:1001AC00B2FBF3F3184601F06DF800F021F91BE0F7
:1001BC00002000F053FB0346002B02D10D4B002214
:1001CC001A7001F073F80346002B0FD00A4B1B6812
:1001DC004FF4FA72B2FBF3F3184601F053F800F047
:1001EC0007F903E000BF02E000BF00E000BF00BF62
:1001FC0080BD00BF3C0000206000002080B500AF37
:10020C002B4B5B78022B31D0022B4EDC002B02D017
:10021C00012B0CD049E0012000F020FB0346002B01
:10022C003ED0234B01225A7000F098F838E00120A0
:10023C0000F014FB0346002B03D11D4B00225A7017
:10024C0030E0012000F024FB0346002B2AD0184B91
:10025C0002225A70174B1B684FF4FA72B2FBF3F37D
:10026C00184601F02DF800F079F81BE0012000F0A1
:10027C00F5FA0346002B02D10D4B00225A7001F007
:10028C0033F80346002B0FD00A4B1B684FF4FA725D
:10029C00B2FBF3F3184601F013F800F05FF803E03B
:1002AC0000BF02E000BF00E000BF00BF80BD00BF88
:1002BC003C0000206000002080B500AF104B9B7804
:1002CC00002B02D0012B0CD018E0022000F0C6FA53
:1002DC000346002B0FD00A4B01229A7000F012F843
:1002EC0009E0022000F0BAFA0346002B05D1044BBA
:1002FC0000229A7001E000BF00E000BF00BF80BD8B
:10030C003C00002080B400AF0F4B1B78072B10D0A3
:10031C00072B13DC052B02D0062B05D00EE00B4B64
:10032C001A780B4B1A700AE0084B1A78094B1A70A2
:10033C0005E0064B1A78084B1A7000E000BF00BFAE
:10034C00BD4680BC704700BF6500002068000020DF
:10035C0067000020660000205C00002080B400AF25
:10036C00104B1B78052B07D00E4B1B78062B03D09C
:10037C000C4B1B78072B10D10B4B1A780B4BA3FB98
:10038C00021399090B465B000B4459010B44D31A19
:10039C00DBB20133DAB2044B1A7000BFBD4680BC2D
:1003AC00704700BF650000206800002003B57EA5E3
:1003BC0080B400AF0B4B1B781A460B4B1B781946BD
:1003CC000A4B1B780B449A4208D0064B08221A7031
:1003DC00054B05221A70054B03221A7000BFBD464F
:1003EC0080BC7047670000205C0000206600002085
:1003FC0080B500AF1D4B1B78072B16D0072B2BDCC1
:10040C00052B02D0062B08D026E0184B06221A70BA
:10041C00174B1A78174B1A7026E0144B07221A70D8
:10042C00154B1A78134B1A701EE0FFF7C1FF124BD5
:10043C001A78104B1A70114B1A78114B1A70114B09
:10044C001B684FF47A72B2FBF3F3184600F0FCFE13
:10045C00064B03221A7007E0044B05221A70074B57
:10046C001A78044B1A7000BF00BF80BD65000020D5
:10047C0066000020680000205C000020670000205F
:10048C00640000206000002080B500AF00F008FE82
:10049C0000F0EEFE0346002B1FD0114B1B684FF4EF
:1004AC007A72B2FBF3F3184600F0CEFE0D4B1B78BC
:1004BC00013BDAB20B4B1A700B4B1B78013BDAB2D7
:1004CC00094B1A70074B1B78002B06D1074B0422E3
:1004DC001A70074B1A78034B1A7000BF80BD00BF0F
:1004EC0060000020680000206400002065000020EF
:1004FC006600002080B500AF00F0F6FD00F0B8FEFD
:10050C000346002B23D0134B1B684FF47A72B2FBBB
:10051C00F3F3184600F098FE0F4B1B78013BDAB250
:10052C000D4B1A700D4B1B78013BDAB20B4B1A704A
:10053C00094B1B78002B0AD1094B01221A70094B6D
:10054C001A78054B1A70084B1A78044B1A7000BFB6
:10055C0080BD00BF60000020680000206400002007
:10056C0065000020670000205C00002080B500AF13
:10057C0000F04EFD00F07CFE0346002B1FD0114B0B
:10058C001B684FF47A72B2FBF3F3184600F05CFE72
:10059C000D4B1B78013BDAB20B4B1A700B4B1B78D3
:1005AC00013BDAB2094B1A70084B1B78002B06D1B1
:1005BC00074B02221A70074B1A78044B1A7000BFB3
:1005CC0080BD00BF60000020680000206400002097
:1005DC00650000206600002080B500AF00F03CFDF7
:1005EC0000F046FE0346002B23D0134B1B684FF440
:1005FC007A72B2FBF3F3184600F026FE0F4B1B7811
:10060C00013BDAB20D4B1A700D4B1B78013BDAB281
:10061C000B4B1A700A4B1B78002B0AD1094B032287
:10062C001A70094B1A78054B1A70084B1A78044B40
:10063C001A7000BF80BD00BF600000206800002061
:10064C0064000020650000205C0000206700002092
:10065C0080B500AF034B02221A7000F0B1FD00BF51
:10066C0080BD00BF6400002080B500AF034B0322A7
:10067C001A7000F0A5FD00BF80BD00BF6400002013
:10068C0080B500AF034B04221A7000F099FD00BF37
:10069C0080BD00BF6400002080B500AF244B1B78E8
:1006AC00072B3DD801A252F823F000BFD906000851
:1006BC000F070008150700080307000809070008C2
:1006CC001B0700082107000827070008184B032206
:1006DC001A70184B08221A70174B05221A70174BF8
:1006EC0003221A70144B1A78154B1A70114B1A7886
:1006FC00144B1A7015E0FFF7C7FE12E0FFF7FAFE75
:10070C000FE0FFF733FF0CE0FFF766FF09E0FFF7A0
:10071C009FFF06E0FFF7A8FF03E0FFF7B1FF00E043
:10072C0000BF00F035FC00F091FB00BF80BD00BFA6
:10073C0065000020670000205C000020660000209F
:10074C00680000206400002090B583B000AF002347
:10075C00FB716CE0FA79FB793949895C394AD154DF
:10076C00FB79022B1CD0022B25DC002B02D0012B99
:10077C000BD020E0FC794FF48071334801F02CFA57
:10078C0003461A462E4B1A5516E0FC794FF40071AD
:10079C002D4801F021FA03461A46294B1A550BE055
:1007AC00FC794FF48061284801F016FA03461A468A
:1007BC00234B1A5500E000BFFB79214AD25CFB7930
:1007CC002049CB5C9A4205D1FA79FB791C49895CAA
:1007DC001E4AD154FB791D4AD35C002B1BD1FB79EB
:1007EC001B4A32F8133019461A4B1B684FF47A72B5
:1007FC00B2FBF3F3994209D2FB79154A32F8132074
:10080C00013291B2124A22F813100DE0FB79124A10
:10081C000121D15408E0FB790D4A002122F8131074
:10082C00FB790D4A0021D154FB790133FB71FB7923
:10083C00022B8FD900BF00BF0C37BD4690BD00BF47
:10084C00400000204400002000080140000000206F
:10085C004C000020600000204800002080B483B0D1
:10086C0000AF0346FB71FB79022B01D9002307E093
:10087C00FB79064AD35C002B0CBF01230023DBB2AF
:10088C0018460C37BD4680BC704700BF00000020E6
:10089C0080B483B000AF0346FB71FB79022B01D906
:1008AC00FF2307E0FB79064AD35C012B0CBF012325
:1008BC000023DBB218460C37BD4680BC704700BF26
:1008CC004800002080B500AF00F09CFE00F01AF844
:1008DC0000F0B8F800F052F8084801F0F1FD084BB0
:1008EC0000221A7000F0CAFDFFF7D6FEFFF728FCB5
:1008FC00FFF784FCFFF7E0FCF6E700BF6C0000207C
:10090C006500002080B590B000AF07F118032822D5
:10091C000021184602F090F93B1D00221A605A6023
:10092C009A60DA601A610223BB610123BB62102357
:10093C00FB6200237B6307F11803184601F094F95E
:10094C000346002B01D000F0EBF80F237B60002353
:10095C00BB600023FB6000233B6100237B613B1DDC
:10096C000021184601F000FC0346002B01D000F0DA
:10097C00D7F800BF4037BD4680BD000080B588B0B9
:10098C0000AF07F10C0300221A605A609A60DA601B
:10099C003B1D00221A605A60274B4FF080421A60B0
:1009AC00254B41F63F725A60234B00229A60224B32
:1009BC000922DA60204B00221A611F4B00229A6137
:1009CC001D4801F02DFD0346002B01D000F0A8F8C6
:1009DC004FF48053FB6007F10C031946164801F0E5
:1009EC00C3FE0346002B01D000F09AF800237B6075
:1009FC000023BB603B1D19460F4802F08FF80346DD
:100A0C00002B01D000F08CF80B4B5B6801330A4AC9
:100A1C00D268013202FB03F3084AB2FBF3F3FB6129
:100A2C004FF47A72FB69B2FBF3F3054A136000BF13
:100A3C002037BD4680BD00BF6C00002000127A003C
:100A4C006000002080B586B000AF07F108030022DB
:100A5C001A605A609A60DA60284B9B69274A43F007
:100A6C0004039361254B9B6903F004037B607B6853
:100A7C00224B9B69214A43F0080393611F4B9B69EE
:100A8C0003F008033B603B680022FE211C4801F088
:100A9C00BAF8002240F67F711A4801F0B4F8FE2330
:100AAC00BB600123FB6000233B6102237B6107F1E8
:100ABC0008031946124800F015FF40F67F73BB601F
:100ACC000123FB6000233B6102237B6107F10803D8
:100ADC0019460C4800F006FF4FF4E063BB6000239E
:100AEC00FB6001233B6107F108031946044800F041
:100AFC00F9FE00BF1837BD4680BD00BF0010024094
:100B0C0000080140000C014080B582B000AF786055
:100B1C0000F044FCFFF718FE00BF0837BD4680BD4F
:100B2C0080B400AF72B600BFFEE7000080B582B0A3
:100B3C0000AF78607B68092B00F2808101A252F82B
:100B4C0023F000BF790B0008C10B0008090C00084A
:100B5C00510C0008990C0008E10C0008290D000844
:100B6C00710D0008B90D0008010E000800220121CA
:100B7C00B54801F048F800220221B34801F043F8CF
:100B8C0000220421B04801F03EF800220821AE48B2
:100B9C0001F039F800221021AB4801F034F80022A2
:100BAC002021A94801F02FF801224021A64801F08C
:100BBC002AF844E101220121A34801F024F8002283
:100BCC000221A14801F01FF8002204219E4801F0E7
:100BDC001AF8012208219C4801F015F80122102175
:100BEC00994801F010F801222021974801F00BF8E8
:100BFC0001224021944801F006F820E10022012155
:100C0C00914801F000F8002202218F4800F0FBFF10
:100C1C00012204218C4800F0F6FF002208218A48AA
:100C2C0000F0F1FF00221021874800F0ECFF0122B8
:100C3C002021854800F0E7FF00224021824800F087
:100C4C00E2FFFCE0002201217F4800F0DCFF0022E3
:100C5C0002217D4800F0D7FF002204217A4800F0E1
:100C6C00D2FF00220821784800F0CDFF012210218C
:100C7C00754800F0C8FF01222021734800F0C3FF23
:100C8C0000224021704800F0BEFFD8E00122012173
:100C9C006D4800F0B8FF002202216B4800F0B3FF52
:100CAC0000220421684800F0AEFF012208216648AA
:100CBC0000F0A9FF01221021634800F0A4FF0022DC
:100CCC002021614800F09FFF002240215E4800F087
:100CDC009AFFB4E0002201215B4800F094FF01224E
:100CEC000221594800F08FFF00220421564800F0E1
:100CFC008AFF00220821544800F085FF01221021B0
:100D0C00514800F080FF002220214F4800F07BFF6B
:100D1C00002240214C4800F076FF90E00022012197
:100D2C00494800F070FF01220221474800F06BFF98
:100D3C0000220421444800F066FF002208214248AA
:100D4C0000F061FF002210213F4800F05CFF002200
:100D5C0020213D4800F057FF002240213A4800F086
:100D6C0052FF6CE000220121374800F04CFF0022BA
:100D7C000221354800F047FF00220421324800F0E0
:100D8C0042FF01220821304800F03DFF01221021D2
:100D9C002D4800F038FF012220212B4800F033FFB2
:100DAC0001224021284800F02EFF48E000220121BA
:100DBC00254800F028FF00220221234800F023FFE1
:100DCC0000220421204800F01EFF002208211E48AA
:100DDC0000F019FF002210211B4800F014FF002224
:100DEC002021194800F00FFF00224021164800F086
:100DFC000AFF24E000220121134800F004FF002226
:100E0C000221114800F0FFFE002204210E4800F0E0
:100E1C00FAFE002208210C4800F0F5FE01221021F8
:100E2C00094800F0F0FE00222021074800F0EBFEFC
:100E3C0000224021044800F0E6FE00E000BF00BFA5
:100E4C000837BD4680BD00BF000C014080B500AF27
:100E5C0000F09AFA0346002B00F09080484B1B6878
:100E6C006422B2FBF3F3184600F07AFA454B1B6888
:100E7C00454A52F823301846FFF758FE414B1B6881
:100E8C00032B6FD801A252F823F000BFA90E000863
:100E9C00DB0E00080D0F00083F0F000800224FF476
:100EAC0080713A4800F0AFFE01224FF400713748D0
:100EBC0000F0A9FE01224FF48061344800F0A3FE3B
:100ECC0001224FF40061314800F09DFE4BE00122FD
:100EDC004FF480712D4800F096FE00224FF4007103
:100EEC002A4800F090FE01224FF48061274800F060
:100EFC008AFE01224FF40061244800F084FE32E0A7
:100F0C0001224FF48071214800F07DFE01224FF444
:100F1C0000711E4800F077FE00224FF480611B48E0
:100F2C0000F071FE01224FF40061184800F06BFED6
:100F3C0019E001224FF48071144800F064FE012284
:100F4C004FF40071114800F05EFE01224FF48061F5
:100F5C000E4800F058FE00224FF400610B4800F0E0
:100F6C0052FE00E000BF074B1B680133042293FBC9
:100F7C00F2F102FB01F29B1A024A136000BF80BD22
:100F8C00600000205400002004000020000C0140F0
:100F9C0080B400AF1A4B1B781A4AA2FB0323DB0860
:100FAC00DBB21A46184B1A60154B1A78154BA3FB7B
:100FBC000213D9080B469B000B445B00D31ADBB21F
:100FCC001A46114B5A60114B1B780E4AA2FB032395
:100FDC00DB08DBB21A460C4B9A600C4B1A78094BA7
:100FEC00A3FB0213D9080B469B000B445B00D31ADE
:100FFC00DBB21A46044BDA6000BFBD4680BC7047BA
:10100C0068000020CDCCCCCC040000206400002073
:10101C0080B500AF012202210E4800F0F4FD002241
:10102C0004210C4800F0EFFD00220821094800F0D3
:10103C00EAFD00221021074800F0E5FD01222021E5
:10104C00044800F0E0FD00224021024800F0DBFDE6
:10105C0000BF80BD0008014080B500AF0122022115
:10106C000E4800F0D0FD002204210C4800F0CBFD0E
:10107C0000220821094800F0C6FD00221021074873
:10108C0000F0C1FD00222021044800F0BCFD01222B
:10109C004021024800F0B7FD00BF80BD00080140B0
:1010AC0080B500AF002202210E4800F0ACFD0122F9
:1010BC0004210C4800F0A7FD00220821094800F08B
:1010CC00A2FD01221021074800F09DFD00222021E5
:1010DC00044800F098FD00224021024800F093FDE6
:1010EC0000BF80BD0008014080B500AF0022022186
:1010FC000E4800F088FD002204210C4800F083FD0E
:10110C0001220821094800F07EFD01221021074828
:10111C0000F079FD00222021044800F074FD00222B
:10112C004021024800F06FFD00BF80BD0008014067
:10113C0080B500AF012202210E4800F064FD0122AF
:10114C0004210C4800F05FFD01220821094800F041
:10115C005AFD01221021074800F055FD01222021E3
:10116C00044800F050FD01224021024800F04BFDE4
:10117C0000BF80BD0008014080B500AF00220221F5
:10118C000E4800F040FD002204210C4800F03BFD0D
:10119C0000220821094800F036FD002210210748E2
:1011AC0000F031FD00222021044800F02CFD00222B
:1011BC004021024800F027FD00BF80BD000801401F
:1011CC0080B584B000AF1E4B1B78002B02D0012BD6
:1011DC001DD030E000F0A6F80346002B14D0184BBD
:1011EC0001221A70174B1B68FA22B2FBF3F3BB6097
:1011FC00144B1B684FF4FA72B2FBF3F2BB68D31AB0
:10120C007B60786800F07AF8FFF7B6FF13E000F027
:10121C0089F80346002B0BD0094B00221A70094B9E
:10122C001B68FA22B2FBF3F3FB60F86800F066F877
:10123C00FFF77EFF00BF00BF1037BD4680BD00BF6B
:10124C00580000206000002080B483B000AF7860AC
:10125C00054A7B681360054B00221A7000BF0C37DF
:10126C00BD4680BC704700BFC4000020CC000020ED
:10127C0080B400AF024B1B781846BD4680BC70474B
:10128C00CC00002080B483B000AF7860054B002206
:10129C001A70054A7B68136000BF0C37BD4680BCD2
:1012AC00704700BFBC000020D400002080B400AF09
:1012BC00024B1B781846BD4680BC7047BC00002012
:1012CC0080B483B000AF7860054B00221A70054AD9
:1012DC007B68136000BF0C37BD4680BC704700BFF5
:1012EC00CD000020C800002080B400AF024B1B785A
:1012FC001846BD4680BC7047CD00002080B483B03A
:10130C0000AF7860054B00221A70054A7B681360A9
:10131C0000BF0C37BD4680BC704700BFBD0000202D
:10132C00C000002080B400AF024B1B781846BD46AD
:10133C0080BC7047BD00002080B483B000AF7860E3
:10134C00054B00221A70054A7B68136000BF0C37EE
:10135C00BD4680BC704700BFBE000020D0000020FE
:10136C0080B483B000AF7860054B00221A70054A38
:10137C007B68136000BF0C37BD4680BC704700BF54
:10138C00B4000020B800002080B400AF024B1B78E2
:10139C001846BD4680BC7047B400002080B500AF35
:1013AC00294B1B68013B284A1360274B1B68002BF9
:1013BC0002DC264B01221A70254B1B68013B244A88
:1013CC001360234B1B68002B02DC224B01221A708A
:1013DC00214B1B68013B204A13601F4B1B68002BE1
:1013EC0002DC1E4B01221A701D4B1B68013B1C4A70
:1013FC0013601B4B1B68002B02DC1A4B01221A706A
:10140C00194B1B68013B184A1360174B1B68002BC8
:10141C0002DC164B01221A70154B1B68013B144A57
:10142C001360134B1B68002B0CDC8021114800F05F
:10143C0002FC114B1B684FF47A72B2FBF3F31846A3
:10144C00FFF77AFF00BF80BDC4000020CC00002055
:10145C00C0000020BD000020D4000020BC000020F3
:10146C00C8000020CD000020B8000020B4000020EF
:10147C00D0000020000801406000002080B500AFC3
:10148C000420FFF7E1FE0320FFF738FF0520FFF7EC
:10149C0067FF0220FFF750FF00BF80BD80B485B00E
:1014AC0000AF154B9B69144A43F001039361124B37
:1014BC009B6903F00103BB60BB680F4BDB690E4AF1
:1014CC0043F08053D3610C4BDB6903F080537B609A
:1014DC007B680A4B5B68FB60FB6823F0E063FB6096
:1014EC00FB6843F08063FB60044AFB68536000BFF9
:1014FC001437BD4680BC704700100240000001400C
:10150C0080B584B000AF78607B681B68B3F1804F06
:10151C0013D10C4BDB690B4A43F00103D361094B2C
:10152C00DB6903F00103FB60FB68002200211C2037
:10153C0000F0A1F91C2000F0BAF900BF1037BD462D
:10154C0080BD00BF0010024080B400AFFEE780B445
:10155C0000AFFEE780B400AFFEE780B400AFFEE75B
:10156C0080B400AFFEE780B400AF00BFBD4680BCC6
:10157C00704780B400AF00BFBD4680BC704780B4DC
:10158C0000AF00BFBD4680BC704780B500AF00F017
:10159C007FF800BF80BD000080B500AF024800F0AE
:1015AC00DBFF00BF80BD00BF6C00002080B400AF2B
:1015BC0000BFBD4680BC7047FFF7F8FF0B480C49D5
:1015CC000C4A002302E0D458C4500433C4188C4293
:1015DC00F9D3094A094C002301E013600432A242FA
:1015EC00FBD301F005FBFFF76DF9704700000020FD
:1015FC0020000020982C000820000020DC00002097
:10160C00FEE7000080B500AF084B1B68074A43F0AB
:10161C0010031360032000F023F90F2000F008F8EA
:10162C00FFF73CFF0023184680BD00BF002002409E
:10163C0080B582B000AF7860124B1A68124B1B78E1
:10164C0019464FF47A73B3FBF1F3B2FBF3F318467C
:10165C0000F03BF90346002B01D001230EE07B6820
:10166C000F2B0AD8002279684FF0FF3000F003F9F5
:10167C00064A7B681360002300E0012318460837F4
:10168C00BD4680BD140000201C0000201800002066
:10169C0080B400AF054B1B781A46054B1B681344EE
:1016AC00034A136000BFBD4680BC70471C0000207D
:1016BC00D800002080B400AF024B1B681846BD4612
:1016CC0080BC7047D800002080B485B000AF786033
:1016DC007B6803F00703FB600C4BDB68BB60BA68EC
:1016EC004FF6FF031340BB60FB681A02BB68134341
:1016FC0043F0BF6343F40033BB60044ABB68D36060
:10170C0000BF1437BD4680BC704700BF00ED00E041
:10171C0080B400AF044BDB681B0A03F007031846C8
:10172C00BD4680BC704700BF00ED00E080B483B0C4
:10173C0000AF0346FB7197F90730002B0BDBFB79ED
:10174C0003F01F02064997F907305B09012000FAE4
:10175C0002F241F8232000BF0C37BD4680BC704715
:10176C0000E100E080B483B000AF03463960FB7148
:10177C0097F90730002B0ADB3B68DAB20C4997F972
:10178C0007301201D2B20B4483F800230AE03B6805
:10179C00DAB20849FB7903F00F03043B1201D2B211
:1017AC000B441A7600BF0C37BD4680BC704700BF97
:1017BC0000E100E000ED00E080B489B000AFF8601B
:1017CC00B9607A60FB6803F00703FB61FB69C3F146
:1017DC000703042B28BF0423BB61FB690433062BCE
:1017EC0002D9FB69033B00E000237B614FF0FF3221
:1017FC00BB6902FA03F3DA43BB681A407B699A406F
:10180C004FF0FF317B6901FA03F3D9437B680B403E
:10181C00134318462437BD4680BC704780B582B050
:10182C0000AF78607B68013BB3F1807F01D301236B
:10183C000FE00A4A7B68013B53600F214FF0FF30E9
:10184C00FFF790FF054B00229A60044B07221A60A9
:10185C00002318460837BD4680BD00BF10E000E0ED
:10186C0080B582B000AF78607868FFF72DFF00BFBD
:10187C000837BD4680BD80B586B000AF0346B96061
:10188C007A60FB7300237B61FFF742FF78617A6813
:10189C00B9687869FFF790FF024697F90F30114647
:1018AC001846FFF75FFF00BF1837BD4680BD80B5F7
:1018BC0082B000AF0346FB7197F907301846FFF76B
:1018CC0035FF00BF0837BD4680BD80B582B000AF84
:1018DC0078607868FFF7A2FF034618460837BD46C4
:1018EC0080BD000080B48BB000AF786039600023FD
:1018FC007B6200233B6248E101227B6A02FA03F31C
:10190C00FB613B681B68FA691340BB61BA69FB69F0
:10191C009A4240F037813B685B68A34A93425ED0A1
:10192C00A14A934275D8A14A934258D09F4A9342F8
:10193C006FD89F4A934252D09D4A934269D89D4A90
:10194C0093424CD09B4A934263D89B4A934246D0D5
:10195C00994A93425DD8122B2AD8122B59D801A23E
:10196C0052F823F0EB190008C5190008D719000824
:10197C00191A00081F1A00081F1A00081F1A00085D
:10198C001F1A00081F1A00081F1A00081F1A000847
:10199C001F1A00081F1A00081F1A00081F1A000837
:1019AC001F1A00081F1A0008CD190008E1190008B9
:1019BC00824A934213D02CE03B68DB683B6229E0FF
:1019CC003B68DB6804333B6224E03B68DB6808332C
:1019DC003B621FE03B68DB680C333B621AE03B6800
:1019EC009B68002B02D104233B6213E03B689B688D
:1019FC00012B05D108233B627B68FA691A6109E067
:101A0C0008233B627B68FA695A6103E000233B625E
:101A1C0000E000BFBB69FF2B01D87B6801E07B684D
:101A2C0004337B61BB69FF2B02D87B6A9B0002E00D
:101A3C007B6A083B9B003B617B691A680F213B6901
:101A4C0001FA03F3DB431A40396A3B6901FA03F3E9
:101A5C001A437B691A603B685B6803F08053002B68
:101A6C0000F09080564B9B69554A43F001039361FB
:101A7C00534B9B6903F00103BB60BB68514A7B6A03
:101A8C009B08023352F82330FB607B6A03F003039C
:101A9C009B000F2202FA03F3DB43FA681340FB604E
:101AAC007B68494A93420DD07B68484A934207D0E1
:101ABC007B68474A934201D1022304E0032302E0EE
:101ACC00012300E000237A6A02F0030292009340A3
:101ADC00FA681343FB603B497B6A9B080233FA6844
:101AEC0041F823203B685B6803F48013002B06D07D
:101AFC00384B9A683749BB6913438B6006E0354B0A
:101B0C009A68BB69DB43334913408B603B685B6865
:101B1C0003F40013002B06D02E4BDA682D49BB6959
:101B2C001343CB6006E02B4BDA68BB69DB432949D6
:101B3C001340CB603B685B6803F40033002B06D08A
:101B4C00244B5A682349BB6913434B6006E0214B75
:101B5C005A68BB69DB431F4913404B603B685B68A9
:101B6C0003F48033002B06D01A4B1A681949BB6951
:101B7C0013430B6006E0174B1A68BB69DB4315492E
:101B8C0013400B607B6A01337B623B681A687B6A8B
:101B9C0022FA03F3002B7FF4AFAE00BF00BF2C374B
:101BAC00BD4680BC704700BF0000321000003110F1
:101BBC000000221000002110000012100000111073
:101BCC00001002400000014000080140000C0140E0
:101BDC00001001400004014080B485B000AF786073
:101BEC000B467B807B689A687B881340002B02D065
:101BFC000123FB7301E00023FB73FB7B18461437B6
:101C0C00BD4680BC704780B483B000AF78600B4693
:101C1C007B8013467B707B78002B03D07A887B68A3
:101C2C001A6103E07B881A047B681A6100BF0C37C9
:101C3C00BD4680BC704780B485B000AF78600B4661
:101C4C007B807B68DB68FB607A88FB6813401A0436
:101C5C00FB68D9437B880B401A437B681A6100BF31
:101C6C001437BD4680BC704780B586B000AF786035
:101C7C007B68002B01D101236CE27B681B6803F0AD
:101C8C000103002B00F08780924B5B6803F00C0380
:101C9C00042B0CD08F4B5B6803F00C03082B12D178
:101CAC008C4B5B6803F48033B3F5803F0BD1894BCD
:101CBC001B6803F40033002B6CD07B685B68002B33
:101CCC0068D1012346E27B685B68B3F5803F06D19F
:101CDC00804B1B687F4A43F4803313602EE07B6893
:101CEC005B68002B0CD17B4B1B687A4A23F4803346
:101CFC001360784B1B68774A23F4802313601DE034
:101D0C007B685B68B3F5A02F0CD1724B1B68714AD2
:101D1C0043F4802313606F4B1B686E4A43F480338B
:101D2C0013600BE06B4B1B686A4A23F4803313601F
:101D3C00684B1B68674A23F4802313607B685B68DD
:101D4C00002B13D0FFF7B6FC386108E0FFF7B2FCAC
:101D5C0002463B69D31A642B01D90323FAE15D4B8C
:101D6C001B6803F40033002BF0D014E0FFF7A2FC47
:101D7C00386108E0FFF79EFC02463B69D31A642BDE
:101D8C0001D90323E6E1534B1B6803F40033002B0A
:101D9C00F0D100E000BF7B681B6803F00203002B4E
:101DAC0063D04C4B5B6803F00C03002B0BD0494BFE
:101DBC005B6803F00C03082B1CD1464B5B6803F4E7
:101DCC008033002B16D1434B1B6803F00203002B0E
:101DDC0005D07B681B69012B01D00123BAE13D4B77
:101DEC001B6823F0F8027B685B69DB0039491343FD
:101DFC000B603AE07B681B69002B20D0364B01222C
:101E0C001A60FFF757FC386108E0FFF753FC0246F5
:101E1C003B69D31A022B01D903239BE12D4B1B6881
:101E2C0003F00203002BF0D02A4B1B6823F0F802BE
:101E3C007B685B69DB00274913430B6015E0264B7D
:101E4C0000221A60FFF736FC386108E0FFF732FC1D
:101E5C0002463B69D31A022B01D903237AE11D4BAD
:101E6C001B6803F00203002BF0D17B681B6803F0A6
:101E7C000803002B3AD07B689B69002B19D0174BB9
:101E8C0001221A60FFF716FC386108E0FFF712FC1C
:101E9C0002463B69D31A022B01D903235AE10D4B9D
:101EAC005B6A03F00203002BF0D0012000F09AFAD9
:101EBC001CE00A4B00221A60FFF7FCFB38610FE0B4
:101ECC00FFF7F8FB02463B69D31A022B08D9032310
:101EDC0040E100BF00100240000042428004424238
:101EEC009E4B5B6A03F00203002BE9D17B681B68F5
:101EFC0003F00403002B00F0A6800023FB75974B26
:101F0C00DB6903F08053002B0DD1944BDB69934AB2
:101F1C0043F08053D361914BDB6903F08053BB607A
:101F2C00BB680123FB758E4B1B6803F48073002B7D
:101F3C0018D18B4B1B688A4A43F480731360FFF7EC
:101F4C00B9FB386108E0FFF7B5FB02463B69D31AD1
:101F5C00642B01D90323FDE0814B1B6803F48073D0
:101F6C00002BF0D07B68DB68012B06D17B4B1B6A06
:101F7C007A4A43F0010313622DE07B68DB68002B87
:101F8C000CD1764B1B6A754A23F001031362734B19
:101F9C001B6A724A23F0040313621CE07B68DB6843
:101FAC00052B0CD16D4B1B6A6C4A43F00403136276
:101FBC006A4B1B6A694A43F0010313620BE0674BDF
:101FCC001B6A664A23F001031362644B1B6A634A63
:101FDC0023F0040313627B68DB68002B15D0FFF73A
:101FEC0069FB38610AE0FFF765FB02463B69D31ACF
:101FFC0041F28832934201D90323ABE0574B1B6A61
:10200C0003F00203002BEED014E0FFF753FB386112
:10201C000AE0FFF74FFB02463B69D31A41F28832C4
:10202C00934201D9032395E04C4B1B6A03F0020346
:10203C00002BEED1FB7D012B05D1484BDB69474AC8
:10204C0023F08053D3617B68DB69002B00F0818027
:10205C00424B5B6803F00C03082B61D07B68DB6997
:10206C00022B46D13F4B00221A60FFF723FB38614D
:10207C0008E0FFF71FFB02463B69D31A022B01D97C
:10208C00032367E0354B1B6803F00073002BF0D182
:10209C007B681B6AB3F5803F08D1304B5B6823F437
:1020AC0000327B689B682D4913434B602B4B5B685C
:1020BC0023F474127B68196A7B685B6A0B432749AB
:1020CC0013434B60274B01221A60FFF7F3FA386178
:1020DC0008E0FFF7EFFA02463B69D31A022B01D94D
:1020EC00032337E01D4B1B6803F00073002BF0D06B
:1020FC002FE01C4B00221A60FFF7DCFA386108E075
:10210C00FFF7D8FA02463B69D31A022B01D90323F5
:10211C0020E0124B1B6803F00073002BF0D118E089
:10212C007B68DB69012B01D1012313E00B4B5B684E
:10213C00FB60FB6803F480327B681B6A9A4206D111
:10214C00FB6803F470127B685B6A9A4201D001232E
:10215C0000E0002318461837BD4680BD0010024031
:10216C00007000406000424280B584B000AF7860DF
:10217C0039607B68002B01D10123D0E06A4B1B68CE
:10218C0003F007033A689A4210D9674B1B6823F097
:10219C00070265493B6813430B60634B1B6803F0F4
:1021AC0007033A689A4201D00123B8E07B681B68A8
:1021BC0003F00203002B20D07B681B6803F00403A0
:1021CC00002B05D0594B5B68584A43F4E0635360CD
:1021DC007B681B6803F00803002B05D0534B5B682E
:1021EC00524A43F460535360504B5B6823F0F00247
:1021FC007B689B684D4913434B607B681B6803F0FD
:10220C000103002B40D07B685B68012B07D1474B47
:10221C001B6803F40033002B15D101237FE07B688E
:10222C005B68022B07D1414B1B6803F00073002B3A
:10223C0009D1012373E03D4B1B6803F00203002B13
:10224C0001D101236BE0394B5B6823F003027B68FF
:10225C005B68364913434B60FFF72CFAF8600AE0D1
:10226C00FFF728FA0246FB68D31A41F288329342F0
:10227C0001D9032353E02D4B5B6803F00C027B6800
:10228C005B689B009A42EBD1274B1B6803F007035A
:10229C003A689A4210D2244B1B6823F00702224959
:1022AC003B6813430B60204B1B6803F007033A6831
:1022BC009A4201D0012332E07B681B6803F00403CF
:1022CC00002B08D0194B5B6823F4E0627B68DB6859
:1022DC00164913434B607B681B6803F00803002B03
:1022EC0009D0124B5B6823F460527B681B69DB00DE
:1022FC000E4913434B6000F021F802460B4B5B6810
:10230C001B0903F00F030A49CB5C22FA03F3094AB9
:10231C001360094B1B681846FFF78AF9002318460F
:10232C001037BD4680BD00BF0020024000100240A7
:10233C006C2C0008140000201800002080B487B01A
:10234C0000AF0023FB600023BB6000237B610023F4
:10235C007B6000233B611E4B5B68FB60FB6803F0FA
:10236C000C03042B02D0082B03D027E0194B3B6144
:10237C0027E0FB689B0C03F00F03174AD35C7B60D0
:10238C00FB6803F48033002B10D0114B5B685B0CA3
:10239C0003F00103114AD35CBB607B680D4A02FB5E
:1023AC0003F2BB68B2FBF3F37B6104E07B680C4A7D
:1023BC0002FB03F37B617B693B6102E0054B3B61F4
:1023CC0000BF3B6918461C37BD4680BC704700BF38
:1023DC000010024000127A007C2C00088C2C0008A3
:1023EC0000093D0080B485B000AF78600A4B1B68D3
:1023FC000A4AA2FB03235B0A7A6802FB03F3FB6025
:10240C0000BFFB685A1EFA60002BF9D100BF00BF59
:10241C001437BD4680BC704714000020D34D6210A9
:10242C0080B582B000AF78607B68002B01D10123AE
:10243C0041E07B6893F83D30DBB2002B06D17B6822
:10244C00002283F83C207868FFF75AF87B68022258
:10245C0083F83D207B681A687B6804331946104664
:10246C0000F06EFA7B68012283F846207B6801221B
:10247C0083F83E207B68012283F83F207B68012291
:10248C0083F840207B68012283F841207B6801227D
:10249C0083F842207B68012283F843207B68012269
:1024AC0083F844207B68012283F845207B68012255
:1024BC0083F83D20002318460837BD4680BD000038
:1024CC0080B485B000AF78607B6893F83D30DBB2A8
:1024DC00012B01D0012335E07B68022283F83D20DB
:1024EC007B681B68DA687B681B6842F00102DA6063
:1024FC007B681B68164A934209D07B681B68B3F152
:10250C00804F04D07B681B68124A934211D17B68C0
:10251C001B689B6803F00703FB60FB68062B10D05D
:10252C007B681B681A687B681B6842F001021A60A2
:10253C0007E07B681B681A687B681B6842F0010225
:10254C001A60002318461437BD4680BC704700BF84
:10255C00002C01400004004080B582B000AF7860D0
:10256C007B681B681B6903F00203022B22D17B687A
:10257C001B68DB6803F00203022B1BD17B681B6812
:10258C006FF002021A617B6801221A777B681B6864
:10259C009B6903F00303002B03D0786800F0B4F9B7
:1025AC0005E0786800F0A7F9786800F0B6F97B6868
:1025BC0000221A777B681B681B6903F00403042B49
:1025CC0022D17B681B68DB6803F00403042B1BD14E
:1025DC007B681B686FF004021A617B6802221A7711
:1025EC007B681B689B6903F44073002B03D07868ED
:1025FC0000F08AF905E0786800F07DF9786800F061
:10260C008CF97B6800221A777B681B681B6903F0C6
:10261C000803082B22D17B681B68DB6803F00803D6
:10262C00082B1BD17B681B686FF008021A617B6852
:10263C0004221A777B681B68DB6903F00303002B09
:10264C0003D0786800F060F905E0786800F053F981
:10265C00786800F062F97B6800221A777B681B6847
:10266C001B6903F01003102B22D17B681B68DB68FD
:10267C0003F01003102B1BD17B681B686FF010024A
:10268C001A617B6808221A777B681B68DB6903F484
:10269C004073002B03D0786800F036F905E07868B9
:1026AC0000F029F9786800F038F97B6800221A7775
:1026BC007B681B681B6903F00103012B0ED17B683F
:1026CC001B68DB6803F00103012B07D17B681B68D7
:1026DC006FF001021A617868FEF716FA7B681B68C6
:1026EC001B6903F08003802B0ED17B681B68DB68B1
:1026FC0003F08003802B07D17B681B686FF080028E
:10270C001A61786800F06BFA7B681B681B6903F030
:10271C004003402B0ED17B681B68DB6803F0400341
:10272C00402B07D17B681B686FF040021A617868F8
:10273C0000F0FCF87B681B681B6903F02003202B5E
:10274C000ED17B681B68DB6803F02003202B07D1BC
:10275C007B681B686FF020021A61786800F036FA0B
:10276C0000BF0837BD4680BD80B584B000AF78602F
:10277C0039600023FB737B6893F83C30012B01D14B
:10278C000223B4E07B68012283F83C207B680222A0
:10279C0083F83D207B681B689B68BB60BB6823F09B
:1027AC007703BB60BB6823F47F43BB607B681B680B
:1027BC00BA689A603B681B68B3F5005F3ED0B3F50E
:1027CC00005F00F28780B3F5805F00F08680B3F580
:1027DC00805F7FD8702B1AD0702B7BD8602B50D099
:1027EC00602B77D8502B3CD0502B73D8402B58D023
:1027FC00402B6FD8302B64D0302B6BD8202B60D073
:10280C00202B67D8002B5CD0102B5AD062E07B6851
:10281C0018683B6899683B685A683B68DB6800F04D
:10282C005EF97B681B689B68BB60BB6843F07703F1
:10283C00BB607B681B68BA689A604FE07B6818685D
:10284C003B6899683B685A683B68DB6800F047F95D
:10285C007B681B689A687B681B6842F480429A60AC
:10286C003CE07B6818683B6859683B68DB681A4633
:10287C0000F0BEF87B681B685021184600F015F973
:10288C002CE07B6818683B6859683B68DB681A4623
:10289C0000F0DCF87B681B686021184600F005F935
:1028AC001CE07B6818683B6859683B68DB681A4613
:1028BC0000F09EF87B681B684021184600F0F5F884
:1028CC000CE07B681A683B681B681946104600F0E0
:1028DC00ECF803E00123FB7300E000BF7B680122EE
:1028EC0083F83D207B68002283F83C20FB7B184654
:1028FC001037BD4680BD80B483B000AF786000BF98
:10290C000C37BD4680BC704780B483B000AF786094
:10291C0000BF0C37BD4680BC704780B483B000AF9D
:10292C00786000BF0C37BD4680BC704780B483B064
:10293C0000AF786000BF0C37BD4680BC704700000C
:10294C0080B485B000AF786039607B681B68FB6031
:10295C007B68254A934207D07B68B3F1804F03D044
:10296C007B68224A934208D1FB6823F07003FB601A
:10297C003B685B68FA681343FB607B681A4A9342B6
:10298C0007D07B68B3F1804F03D07B68174A934222
:10299C0008D1FB6823F44073FB603B68DB68FA6882
:1029AC001343FB60FB6823F080023B685B691343B5
:1029BC00FB607B68FA681A603B689A687B68DA622D
:1029CC003B681A687B689A627B68074A934203D11A
:1029DC003B681A697B681A637B6801225A6100BFE5
:1029EC001437BD4680BC7047002C014000040040E9
:1029FC0080B487B000AFF860B9607A60FB681B6A7E
:102A0C007B61FB681B6A23F00102FB681A62FB689E
:102A1C009B693B613B6923F0F0033B617B681B01C5
:102A2C003A6913433B617B6923F00A037B617A6942
:102A3C00BB6813437B61FB683A699A61FB687A69EE
:102A4C001A6200BF1C37BD4680BC704780B487B08B
:102A5C0000AFF860B9607A60FB681B6A7B61FB6849
:102A6C001B6A23F01002FB681A62FB689B693B61CE
:102A7C003B6923F470433B617B681B033A69134346
:102A8C003B617B6923F0A0037B61BB681B017A6906
:102A9C0013437B61FB683A699A61FB687A691A6235
:102AAC0000BF1C37BD4680BC704780B485B000AFFA
:102ABC00786039607B689B68FB60FB6823F070036F
:102ACC00FB603A68FB68134343F00703FB607B68C9
:102ADC00FA689A6000BF1437BD4680BC704780B45A
:102AEC0087B000AFF860B9607A603B60FB689B68A8
:102AFC007B617B6923F47F437B613B681A027B68B3
:102B0C001A43BB6813437A6913437B61FB687A6988
:102B1C009A6000BF1C37BD4680BC704780B485B03E
:102B2C0000AF786039607B6893F83C30012B01D1A1
:102B3C00022341E07B68012283F83C207B6802225F
:102B4C0083F83D207B681B685B68FB607B681B68B7
:102B5C009B68BB60FB6823F07003FB603B681B68E1
:102B6C00FA681343FB607B681B68FA685A607B68E1
:102B7C001B68144A934209D07B681B68B3F1804FE1
:102B8C0004D07B681B68104A93420CD1BB6823F0BD
:102B9C008003BB603B685B68BA681343BB607B68AF
:102BAC001B68BA689A607B68012283F83D207B68B9
:102BBC00002283F83C20002318461437BD4680BC05
:102BCC00704700BF002C01400004004080B483B06B
:102BDC0000AF786000BF0C37BD4680BC704780B436
:102BEC0083B000AF786000BF0C37BD4680BC704727
:102BFC0070B500260C4D0D4C641BA410A64209D1D7
:102C0C0000F022F800260A4D0A4C641BA410A642C0
:102C1C0005D170BD55F8043B98470136EEE755F8E1
:102C2C00043B98470136F2E7902C0008902C0008E2
:102C3C00902C0008942C000803460244934200D1C7
:102C4C00704703F8011BF9E7F8B500BFF8BC08BCE6
:102C5C009E467047F8B500BFF8BC08BC9E4670474E
:102C6C000000000000000000010203040607080930
:102C7C0002030405060708090A0B0C0D0E0F1010B1
:042C8C000102000041
:042C90003101000806
:042C94000D01000826
:102C98000101010001000000020000000300000023
:102CA800040000000024F4001000000001000000EF
:04000005080015C515
:00000001FF
